{
  "contractName": "TravelHome",
  "abi": [
    {
      "inputs": [],
      "stateMutability": "nonpayable",
      "type": "constructor"
    },
    {
      "anonymous": false,
      "inputs": [
        {
          "indexed": false,
          "internalType": "address",
          "name": "from",
          "type": "address"
        },
        {
          "indexed": false,
          "internalType": "address",
          "name": "by",
          "type": "address"
        },
        {
          "indexed": false,
          "internalType": "uint256",
          "name": "id",
          "type": "uint256"
        }
      ],
      "name": "RemoveRoom",
      "type": "event"
    },
    {
      "anonymous": false,
      "inputs": [
        {
          "indexed": false,
          "internalType": "string",
          "name": "name",
          "type": "string"
        },
        {
          "indexed": false,
          "internalType": "string",
          "name": "description",
          "type": "string"
        },
        {
          "indexed": false,
          "internalType": "string",
          "name": "location",
          "type": "string"
        },
        {
          "indexed": false,
          "internalType": "string[]",
          "name": "img",
          "type": "string[]"
        },
        {
          "indexed": false,
          "internalType": "string[]",
          "name": "latlong",
          "type": "string[]"
        },
        {
          "indexed": false,
          "internalType": "uint256[]",
          "name": "bedbath",
          "type": "uint256[]"
        },
        {
          "indexed": false,
          "internalType": "uint256",
          "name": "price",
          "type": "uint256"
        },
        {
          "indexed": false,
          "internalType": "uint256",
          "name": "maxNumOfPeople",
          "type": "uint256"
        },
        {
          "indexed": false,
          "internalType": "string[]",
          "name": "placeType",
          "type": "string[]"
        },
        {
          "indexed": false,
          "internalType": "string[]",
          "name": "features",
          "type": "string[]"
        },
        {
          "indexed": false,
          "internalType": "address",
          "name": "renter",
          "type": "address"
        },
        {
          "indexed": false,
          "internalType": "uint256",
          "name": "id",
          "type": "uint256"
        }
      ],
      "name": "addRooms",
      "type": "event"
    },
    {
      "anonymous": false,
      "inputs": [
        {
          "indexed": false,
          "internalType": "string",
          "name": "name",
          "type": "string"
        },
        {
          "indexed": false,
          "internalType": "address",
          "name": "booker",
          "type": "address"
        },
        {
          "indexed": false,
          "internalType": "uint256",
          "name": "id",
          "type": "uint256"
        },
        {
          "indexed": false,
          "internalType": "string[]",
          "name": "datesBooked",
          "type": "string[]"
        },
        {
          "indexed": false,
          "internalType": "string[]",
          "name": "img",
          "type": "string[]"
        }
      ],
      "name": "bookedRoom",
      "type": "event"
    },
    {
      "anonymous": false,
      "inputs": [
        {
          "indexed": false,
          "internalType": "address",
          "name": "from",
          "type": "address"
        },
        {
          "indexed": false,
          "internalType": "address",
          "name": "to",
          "type": "address"
        },
        {
          "indexed": false,
          "internalType": "uint256",
          "name": "amount",
          "type": "uint256"
        }
      ],
      "name": "withdraw",
      "type": "event"
    },
    {
      "inputs": [
        {
          "internalType": "uint256",
          "name": "",
          "type": "uint256"
        }
      ],
      "name": "Rooms",
      "outputs": [
        {
          "internalType": "string",
          "name": "name",
          "type": "string"
        },
        {
          "internalType": "string",
          "name": "description",
          "type": "string"
        },
        {
          "internalType": "string",
          "name": "location",
          "type": "string"
        },
        {
          "internalType": "uint256",
          "name": "price",
          "type": "uint256"
        },
        {
          "internalType": "uint256",
          "name": "maxNumOfPeople",
          "type": "uint256"
        },
        {
          "internalType": "bool",
          "name": "removed",
          "type": "bool"
        },
        {
          "internalType": "address",
          "name": "renter",
          "type": "address"
        },
        {
          "internalType": "uint256",
          "name": "id",
          "type": "uint256"
        }
      ],
      "stateMutability": "view",
      "type": "function",
      "constant": true
    },
    {
      "inputs": [
        {
          "internalType": "address",
          "name": "",
          "type": "address"
        },
        {
          "internalType": "uint256",
          "name": "",
          "type": "uint256"
        }
      ],
      "name": "RoomsOwned",
      "outputs": [
        {
          "internalType": "string",
          "name": "name",
          "type": "string"
        },
        {
          "internalType": "string",
          "name": "description",
          "type": "string"
        },
        {
          "internalType": "string",
          "name": "location",
          "type": "string"
        },
        {
          "internalType": "uint256",
          "name": "price",
          "type": "uint256"
        },
        {
          "internalType": "uint256",
          "name": "maxNumOfPeople",
          "type": "uint256"
        },
        {
          "internalType": "bool",
          "name": "removed",
          "type": "bool"
        },
        {
          "internalType": "address",
          "name": "renter",
          "type": "address"
        },
        {
          "internalType": "uint256",
          "name": "id",
          "type": "uint256"
        }
      ],
      "stateMutability": "view",
      "type": "function",
      "constant": true
    },
    {
      "inputs": [
        {
          "internalType": "address",
          "name": "",
          "type": "address"
        }
      ],
      "name": "balanceOf",
      "outputs": [
        {
          "internalType": "uint256",
          "name": "",
          "type": "uint256"
        }
      ],
      "stateMutability": "view",
      "type": "function",
      "constant": true
    },
    {
      "inputs": [],
      "name": "owner",
      "outputs": [
        {
          "internalType": "address",
          "name": "",
          "type": "address"
        }
      ],
      "stateMutability": "view",
      "type": "function",
      "constant": true
    },
    {
      "inputs": [
        {
          "internalType": "uint256",
          "name": "",
          "type": "uint256"
        }
      ],
      "name": "roomIds",
      "outputs": [
        {
          "internalType": "uint256",
          "name": "",
          "type": "uint256"
        }
      ],
      "stateMutability": "view",
      "type": "function",
      "constant": true
    },
    {
      "inputs": [
        {
          "internalType": "string",
          "name": "name",
          "type": "string"
        },
        {
          "internalType": "string",
          "name": "description",
          "type": "string"
        },
        {
          "internalType": "string",
          "name": "location",
          "type": "string"
        },
        {
          "internalType": "string[]",
          "name": "img",
          "type": "string[]"
        },
        {
          "internalType": "string[]",
          "name": "latlong",
          "type": "string[]"
        },
        {
          "internalType": "uint256[]",
          "name": "bedbath",
          "type": "uint256[]"
        },
        {
          "internalType": "string[]",
          "name": "placeType",
          "type": "string[]"
        },
        {
          "internalType": "uint256",
          "name": "price",
          "type": "uint256"
        },
        {
          "internalType": "uint256",
          "name": "maxNumOfPeople",
          "type": "uint256"
        },
        {
          "internalType": "string[]",
          "name": "features",
          "type": "string[]"
        }
      ],
      "name": "addRoom",
      "outputs": [],
      "stateMutability": "nonpayable",
      "type": "function"
    },
    {
      "inputs": [
        {
          "internalType": "uint256",
          "name": "id",
          "type": "uint256"
        },
        {
          "internalType": "string[]",
          "name": "newDate",
          "type": "string[]"
        }
      ],
      "name": "bookRoom",
      "outputs": [],
      "stateMutability": "payable",
      "type": "function",
      "payable": true
    },
    {
      "inputs": [
        {
          "internalType": "uint256",
          "name": "amount",
          "type": "uint256"
        }
      ],
      "name": "withdrawBalance",
      "outputs": [],
      "stateMutability": "nonpayable",
      "type": "function"
    },
    {
      "inputs": [],
      "name": "OwnedRooms",
      "outputs": [
        {
          "internalType": "uint256",
          "name": "",
          "type": "uint256"
        }
      ],
      "stateMutability": "view",
      "type": "function",
      "constant": true
    },
    {
      "inputs": [
        {
          "internalType": "uint256",
          "name": "id",
          "type": "uint256"
        }
      ],
      "name": "removeRoom",
      "outputs": [],
      "stateMutability": "nonpayable",
      "type": "function"
    }
  ],
  "bytecode": "0x608060405234801561001057600080fd5b50336000806101000a81548173ffffffffffffffffffffffffffffffffffffffff021916908373ffffffffffffffffffffffffffffffffffffffff16021790555060006001819055506129fd806100686000396000f3fe6080604052600436106100915760003560e01c8063ad7708cf11610059578063ad7708cf1461017b578063bd6c20e7146101b8578063d71e72a5146101d4578063da76d5cd14610218578063f673e2c71461024157610091565b8063461d60be1461009657806370a08231146100bf5780638da5cb5b146100fc5780638f6a3d3514610127578063ac2f0f2d14610150575b600080fd5b3480156100a257600080fd5b506100bd60048036038101906100b89190611733565b610285565b005b3480156100cb57600080fd5b506100e660048036038101906100e191906117be565b610396565b6040516100f391906117fa565b60405180910390f35b34801561010857600080fd5b506101116103ae565b60405161011e9190611824565b60405180910390f35b34801561013357600080fd5b5061014e60048036038101906101499190611b2e565b6103d2565b005b34801561015c57600080fd5b506101656107d6565b60405161017291906117fa565b60405180910390f35b34801561018757600080fd5b506101a2600480360381019061019d9190611733565b610820565b6040516101af91906117fa565b60405180910390f35b6101d260048036038101906101cd9190611ced565b610844565b005b3480156101e057600080fd5b506101fb60048036038101906101f69190611d49565b610b9f565b60405161020f989796959493929190611e2c565b60405180910390f35b34801561022457600080fd5b5061023f600480360381019061023a9190611733565b610dc9565b005b34801561024d57600080fd5b5061026860048036038101906102639190611733565b610fdf565b60405161027c989796959493929190611e2c565b60405180910390f35b3373ffffffffffffffffffffffffffffffffffffffff1660036000838152602001908152602001600020600b0160019054906101000a900473ffffffffffffffffffffffffffffffffffffffff1673ffffffffffffffffffffffffffffffffffffffff1614610329576040517f08c379a000000000000000000000000000000000000000000000000000000000815260040161032090611f0b565b60405180910390fd5b600160036000838152602001908152602001600020600b0160006101000a81548160ff0219169083151502179055507f7bcf6fb3026267872f16c444608deb9cd6aa464f76442e63374e39a8c3559cee30338360405161038b93929190611f2b565b60405180910390a150565b60026020528060005260406000206000915090505481565b60008054906101000a900473ffffffffffffffffffffffffffffffffffffffff1681565b600060036000600154815260200190815260200160002090508a8160000190805190602001906104039291906113ee565b508981600101908051906020019061041c9291906113ee565b50888160020190805190602001906104359291906113ee565b508781600301908051906020019061044e929190611474565b5086816004019080519060200190610467929190611474565b50858160050190805190602001906104809291906114d4565b50838160060181905550828160070181905550848160090190805190602001906104ab929190611474565b508181600a0190805190602001906104c4929190611474565b50600081600b0160006101000a81548160ff0219169083151502179055503381600b0160016101000a81548173ffffffffffffffffffffffffffffffffffffffff021916908373ffffffffffffffffffffffffffffffffffffffff16021790555060015481600c0181905550600460003373ffffffffffffffffffffffffffffffffffffffff1673ffffffffffffffffffffffffffffffffffffffff1681526020019081526020016000208190806001815401808255809150506001900390600052602060002090600d020160009091909190915060008201816000019080546105ad90611f91565b6105b8929190611521565b5060018201816001019080546105cd90611f91565b6105d8929190611521565b5060028201816002019080546105ed90611f91565b6105f8929190611521565b50600382018160030190805461060f9291906115ae565b5060048201816004019080546106269291906115ae565b50600582018160050190805461063d929190611616565b50600682015481600601556007820154816007015560088201816008019080546106689291906115ae565b50600982018160090190805461067f9291906115ae565b50600a820181600a019080546106969291906115ae565b50600b820160009054906101000a900460ff1681600b0160006101000a81548160ff021916908315150217905550600b820160019054906101000a900473ffffffffffffffffffffffffffffffffffffffff1681600b0160016101000a81548173ffffffffffffffffffffffffffffffffffffffff021916908373ffffffffffffffffffffffffffffffffffffffff160217905550600c82015481600c01555050600560015490806001815401808255809150506001900390600052602060002001600090919091909150557f94a10684c545a1273be0958ed009e8221615abef2a49e1ae8ff84353e9dd6c5f8b8b8b8b8b8b8a8a8d8b336001546040516107a99c9b9a9998979695949392919061218d565b60405180910390a1600160008154809291906107c4906122ae565b91905055505050505050505050505050565b6000600460003373ffffffffffffffffffffffffffffffffffffffff1673ffffffffffffffffffffffffffffffffffffffff16815260200190815260200160002080549050905090565b6005818154811061083057600080fd5b906000526020600020016000915090505481565b6001548210610888576040517f08c379a000000000000000000000000000000000000000000000000000000000815260040161087f90612343565b60405180910390fd5b61089282826111ec565b6108d1576040517f08c379a00000000000000000000000000000000000000000000000000000000081526004016108c8906123d5565b60405180910390fd5b6000151560036000848152602001908152602001600020600b0160009054906101000a900460ff1615151461093b576040517f08c379a000000000000000000000000000000000000000000000000000000000815260040161093290612441565b60405180910390fd5b61094582826112fe565b3414610986576040517f08c379a000000000000000000000000000000000000000000000000000000000815260040161097d906124ad565b60405180910390fd5b60005b8151811015610a0f57600360008481526020019081526020016000206008018282815181106109bb576109ba6124cd565b5b60200260200101519080600181540180825580915050600190039060005260206000200160009091909190915090805190602001906109fb9291906113ee565b508080610a07906122ae565b915050610989565b50610a1a8282611344565b600260008060009054906101000a900473ffffffffffffffffffffffffffffffffffffffff1673ffffffffffffffffffffffffffffffffffffffff1673ffffffffffffffffffffffffffffffffffffffff1681526020019081526020016000206000828254610a8991906124fc565b9250508190555060036000838152602001908152602001600020600601546002600060036000868152602001908152602001600020600b0160019054906101000a900473ffffffffffffffffffffffffffffffffffffffff1673ffffffffffffffffffffffffffffffffffffffff1673ffffffffffffffffffffffffffffffffffffffff1681526020019081526020016000206000828254610b2b91906124fc565b925050819055507fa3d468f5365e21557e0615638c044fdc39d739d68e8d9764ae58ccbf3cadb3a76003600084815260200190815260200160002060000133848460036000888152602001908152602001600020600301604051610b9395949392919061271c565b60405180910390a15050565b60046020528160005260406000208181548110610bbb57600080fd5b90600052602060002090600d020160009150915050806000018054610bdf90611f91565b80601f0160208091040260200160405190810160405280929190818152602001828054610c0b90611f91565b8015610c585780601f10610c2d57610100808354040283529160200191610c58565b820191906000526020600020905b815481529060010190602001808311610c3b57829003601f168201915b505050505090806001018054610c6d90611f91565b80601f0160208091040260200160405190810160405280929190818152602001828054610c9990611f91565b8015610ce65780601f10610cbb57610100808354040283529160200191610ce6565b820191906000526020600020905b815481529060010190602001808311610cc957829003601f168201915b505050505090806002018054610cfb90611f91565b80601f0160208091040260200160405190810160405280929190818152602001828054610d2790611f91565b8015610d745780601f10610d4957610100808354040283529160200191610d74565b820191906000526020600020905b815481529060010190602001808311610d5757829003601f168201915b50505050509080600601549080600701549080600b0160009054906101000a900460ff169080600b0160019054906101000a900473ffffffffffffffffffffffffffffffffffffffff169080600c0154905088565b600260003373ffffffffffffffffffffffffffffffffffffffff1673ffffffffffffffffffffffffffffffffffffffff16815260200190815260200160002054811115610e4b576040517f08c379a0000000000000000000000000000000000000000000000000000000008152600401610e42906127d0565b60405180910390fd5b60008054906101000a900473ffffffffffffffffffffffffffffffffffffffff1673ffffffffffffffffffffffffffffffffffffffff163373ffffffffffffffffffffffffffffffffffffffff1614610f5a5760006064600a83610eaf91906127f0565b610eb99190612879565b90506064600a83610eca91906127f0565b610ed49190612879565b600260008060009054906101000a900473ffffffffffffffffffffffffffffffffffffffff1673ffffffffffffffffffffffffffffffffffffffff1673ffffffffffffffffffffffffffffffffffffffff1681526020019081526020016000206000828254610f4391906124fc565b925050819055508082610f5691906128aa565b9150505b3373ffffffffffffffffffffffffffffffffffffffff166108fc829081150290604051600060405180830381858888f19350505050158015610fa0573d6000803e3d6000fd5b507fd9caed12f81c440f63c9677a4301dff8e874a7abd93e3ecd0aaea4ffa129d9fb303383604051610fd493929190611f2b565b60405180910390a150565b600360205280600052604060002060009150905080600001805461100290611f91565b80601f016020809104026020016040519081016040528092919081815260200182805461102e90611f91565b801561107b5780601f106110505761010080835404028352916020019161107b565b820191906000526020600020905b81548152906001019060200180831161105e57829003601f168201915b50505050509080600101805461109090611f91565b80601f01602080910402602001604051908101604052809291908181526020018280546110bc90611f91565b80156111095780601f106110de57610100808354040283529160200191611109565b820191906000526020600020905b8154815290600101906020018083116110ec57829003601f168201915b50505050509080600201805461111e90611f91565b80601f016020809104026020016040519081016040528092919081815260200182805461114a90611f91565b80156111975780601f1061116c57610100808354040283529160200191611197565b820191906000526020600020905b81548152906001019060200180831161117a57829003601f168201915b50505050509080600601549080600701549080600b0160009054906101000a900460ff169080600b0160019054906101000a900473ffffffffffffffffffffffffffffffffffffffff169080600c0154905088565b600080600090505b82518110156112f25760005b60036000868152602001908152602001600020600801805490508110156112de57838281518110611234576112336124cd565b5b602002602001015160405160200161124c919061291a565b6040516020818303038152906040528051906020012060036000878152602001908152602001600020600801828154811061128a576112896124cd565b5b906000526020600020016040516020016112a491906129b0565b6040516020818303038152906040528051906020012014156112cb576000925050506112f8565b80806112d6906122ae565b915050611200565b5080806112ea906122ae565b9150506111f4565b50600190505b92915050565b6000808251600360008681526020019081526020016000206006015461132491906127f0565b61132e8585611344565b61133891906124fc565b90508091505092915050565b60008060009054906101000a900473ffffffffffffffffffffffffffffffffffffffff1673ffffffffffffffffffffffffffffffffffffffff163373ffffffffffffffffffffffffffffffffffffffff1614156113a457600090506113e8565b600082516064600f60036000888152602001908152602001600020600601546113cd91906127f0565b6113d79190612879565b6113e191906127f0565b9050809150505b92915050565b8280546113fa90611f91565b90600052602060002090601f01602090048101928261141c5760008555611463565b82601f1061143557805160ff1916838001178555611463565b82800160010185558215611463579182015b82811115611462578251825591602001919060010190611447565b5b5090506114709190611668565b5090565b8280548282559060005260206000209081019282156114c3579160200282015b828111156114c25782518290805190602001906114b29291906113ee565b5091602001919060010190611494565b5b5090506114d09190611685565b5090565b828054828255906000526020600020908101928215611510579160200282015b8281111561150f5782518255916020019190600101906114f4565b5b50905061151d9190611668565b5090565b82805461152d90611f91565b90600052602060002090601f01602090048101928261154f576000855561159d565b82601f10611560578054855561159d565b8280016001018555821561159d57600052602060002091601f016020900482015b8281111561159c578254825591600101919060010190611581565b5b5090506115aa9190611668565b5090565b8280548282559060005260206000209081019282156116055760005260206000209182015b828111156116045782829080546115e990611f91565b6115f4929190611521565b50916001019190600101906115d3565b5b5090506116129190611685565b5090565b8280548282559060005260206000209081019282156116575760005260206000209182015b8281111561165657825482559160010191906001019061163b565b5b5090506116649190611668565b5090565b5b80821115611681576000816000905550600101611669565b5090565b5b808211156116a5576000818161169c91906116a9565b50600101611686565b5090565b5080546116b590611f91565b6000825580601f106116c757506116e6565b601f0160209004906000526020600020908101906116e59190611668565b5b50565b6000604051905090565b600080fd5b600080fd5b6000819050919050565b611710816116fd565b811461171b57600080fd5b50565b60008135905061172d81611707565b92915050565b600060208284031215611749576117486116f3565b5b60006117578482850161171e565b91505092915050565b600073ffffffffffffffffffffffffffffffffffffffff82169050919050565b600061178b82611760565b9050919050565b61179b81611780565b81146117a657600080fd5b50565b6000813590506117b881611792565b92915050565b6000602082840312156117d4576117d36116f3565b5b60006117e2848285016117a9565b91505092915050565b6117f4816116fd565b82525050565b600060208201905061180f60008301846117eb565b92915050565b61181e81611780565b82525050565b60006020820190506118396000830184611815565b92915050565b600080fd5b600080fd5b6000601f19601f8301169050919050565b7f4e487b7100000000000000000000000000000000000000000000000000000000600052604160045260246000fd5b61189282611849565b810181811067ffffffffffffffff821117156118b1576118b061185a565b5b80604052505050565b60006118c46116e9565b90506118d08282611889565b919050565b600067ffffffffffffffff8211156118f0576118ef61185a565b5b6118f982611849565b9050602081019050919050565b82818337600083830152505050565b6000611928611923846118d5565b6118ba565b90508281526020810184848401111561194457611943611844565b5b61194f848285611906565b509392505050565b600082601f83011261196c5761196b61183f565b5b813561197c848260208601611915565b91505092915050565b600067ffffffffffffffff8211156119a05761199f61185a565b5b602082029050602081019050919050565b600080fd5b60006119c96119c484611985565b6118ba565b905080838252602082019050602084028301858111156119ec576119eb6119b1565b5b835b81811015611a3357803567ffffffffffffffff811115611a1157611a1061183f565b5b808601611a1e8982611957565b855260208501945050506020810190506119ee565b5050509392505050565b600082601f830112611a5257611a5161183f565b5b8135611a628482602086016119b6565b91505092915050565b600067ffffffffffffffff821115611a8657611a8561185a565b5b602082029050602081019050919050565b6000611aaa611aa584611a6b565b6118ba565b90508083825260208201905060208402830185811115611acd57611acc6119b1565b5b835b81811015611af65780611ae2888261171e565b845260208401935050602081019050611acf565b5050509392505050565b600082601f830112611b1557611b1461183f565b5b8135611b25848260208601611a97565b91505092915050565b6000806000806000806000806000806101408b8d031215611b5257611b516116f3565b5b60008b013567ffffffffffffffff811115611b7057611b6f6116f8565b5b611b7c8d828e01611957565b9a505060208b013567ffffffffffffffff811115611b9d57611b9c6116f8565b5b611ba98d828e01611957565b99505060408b013567ffffffffffffffff811115611bca57611bc96116f8565b5b611bd68d828e01611957565b98505060608b013567ffffffffffffffff811115611bf757611bf66116f8565b5b611c038d828e01611a3d565b97505060808b013567ffffffffffffffff811115611c2457611c236116f8565b5b611c308d828e01611a3d565b96505060a08b013567ffffffffffffffff811115611c5157611c506116f8565b5b611c5d8d828e01611b00565b95505060c08b013567ffffffffffffffff811115611c7e57611c7d6116f8565b5b611c8a8d828e01611a3d565b94505060e0611c9b8d828e0161171e565b935050610100611cad8d828e0161171e565b9250506101208b013567ffffffffffffffff811115611ccf57611cce6116f8565b5b611cdb8d828e01611a3d565b9150509295989b9194979a5092959850565b60008060408385031215611d0457611d036116f3565b5b6000611d128582860161171e565b925050602083013567ffffffffffffffff811115611d3357611d326116f8565b5b611d3f85828601611a3d565b9150509250929050565b60008060408385031215611d6057611d5f6116f3565b5b6000611d6e858286016117a9565b9250506020611d7f8582860161171e565b9150509250929050565b600081519050919050565b600082825260208201905092915050565b60005b83811015611dc3578082015181840152602081019050611da8565b83811115611dd2576000848401525b50505050565b6000611de382611d89565b611ded8185611d94565b9350611dfd818560208601611da5565b611e0681611849565b840191505092915050565b60008115159050919050565b611e2681611e11565b82525050565b6000610100820190508181036000830152611e47818b611dd8565b90508181036020830152611e5b818a611dd8565b90508181036040830152611e6f8189611dd8565b9050611e7e60608301886117eb565b611e8b60808301876117eb565b611e9860a0830186611e1d565b611ea560c0830185611815565b611eb260e08301846117eb565b9998505050505050505050565b7f596f7520617265204e4f5420746865204f574e45520000000000000000000000600082015250565b6000611ef5601583611d94565b9150611f0082611ebf565b602082019050919050565b60006020820190508181036000830152611f2481611ee8565b9050919050565b6000606082019050611f406000830186611815565b611f4d6020830185611815565b611f5a60408301846117eb565b949350505050565b7f4e487b7100000000000000000000000000000000000000000000000000000000600052602260045260246000fd5b60006002820490506001821680611fa957607f821691505b60208210811415611fbd57611fbc611f62565b5b50919050565b600081519050919050565b600082825260208201905092915050565b6000819050602082019050919050565b600082825260208201905092915050565b600061200b82611d89565b6120158185611fef565b9350612025818560208601611da5565b61202e81611849565b840191505092915050565b60006120458383612000565b905092915050565b6000602082019050919050565b600061206582611fc3565b61206f8185611fce565b93508360208202850161208185611fdf565b8060005b858110156120bd578484038952815161209e8582612039565b94506120a98361204d565b925060208a01995050600181019050612085565b50829750879550505050505092915050565b600081519050919050565b600082825260208201905092915050565b6000819050602082019050919050565b612104816116fd565b82525050565b600061211683836120fb565b60208301905092915050565b6000602082019050919050565b600061213a826120cf565b61214481856120da565b935061214f836120eb565b8060005b83811015612180578151612167888261210a565b975061217283612122565b925050600181019050612153565b5085935050505092915050565b60006101808201905081810360008301526121a8818f611dd8565b905081810360208301526121bc818e611dd8565b905081810360408301526121d0818d611dd8565b905081810360608301526121e4818c61205a565b905081810360808301526121f8818b61205a565b905081810360a083015261220c818a61212f565b905061221b60c08301896117eb565b61222860e08301886117eb565b81810361010083015261223b818761205a565b9050818103610120830152612250818661205a565b9050612260610140830185611815565b61226e6101608301846117eb565b9d9c50505050505050505050505050565b7f4e487b7100000000000000000000000000000000000000000000000000000000600052601160045260246000fd5b60006122b9826116fd565b91507fffffffffffffffffffffffffffffffffffffffffffffffffffffffffffffffff8214156122ec576122eb61227f565b5b600182019050919050565b7f57726f6e6720526f6f6d00000000000000000000000000000000000000000000600082015250565b600061232d600a83611d94565b9150612338826122f7565b602082019050919050565b6000602082019050818103600083015261235c81612320565b9050919050565b7f526f6f6d20697320416c726561647920426f6f6b656420436865636b20416e6f60008201527f7468657220526f6f6d0000000000000000000000000000000000000000000000602082015250565b60006123bf602983611d94565b91506123ca82612363565b604082019050919050565b600060208201905081810360008301526123ee816123b2565b9050919050565b7f526f6f6d2069732052454d4f5645440000000000000000000000000000000000600082015250565b600061242b600f83611d94565b9150612436826123f5565b602082019050919050565b6000602082019050818103600083015261245a8161241e565b9050919050565b7f506c65617365205061792054686520436f727265637420416d6f756e74000000600082015250565b6000612497601d83611d94565b91506124a282612461565b602082019050919050565b600060208201905081810360008301526124c68161248a565b9050919050565b7f4e487b7100000000000000000000000000000000000000000000000000000000600052603260045260246000fd5b6000612507826116fd565b9150612512836116fd565b9250827fffffffffffffffffffffffffffffffffffffffffffffffffffffffffffffffff038211156125475761254661227f565b5b828201905092915050565b60008190508160005260206000209050919050565b6000815461257481611f91565b61257e8186611d94565b9450600182166000811461259957600181146125ab576125de565b60ff19831686526020860193506125de565b6125b485612552565b60005b838110156125d6578154818901526001820191506020810190506125b7565b808801955050505b50505092915050565b600081549050919050565b60008190508160005260206000209050919050565b6000815461261481611f91565b61261e8186611fef565b94506001821660008114612639576001811461264b5761267e565b60ff198316865260208601935061267e565b61265485612552565b60005b8381101561267657815481890152600182019150602081019050612657565b808801955050505b50505092915050565b60006126938383612607565b905092915050565b6000600182019050919050565b60006126b3826125e7565b6126bd8185611fce565b9350836020820285016126cf856125f2565b8060005b8581101561270a578484038952816126eb8582612687565b94506126f68361269b565b925060208a019950506001810190506126d3565b50829750879550505050505092915050565b600060a08201905081810360008301526127368188612567565b90506127456020830187611815565b61275260408301866117eb565b8181036060830152612764818561205a565b9050818103608083015261277881846126a8565b90509695505050505050565b7f4e6f7420456e6f7567682042616c616e63650000000000000000000000000000600082015250565b60006127ba601283611d94565b91506127c582612784565b602082019050919050565b600060208201905081810360008301526127e9816127ad565b9050919050565b60006127fb826116fd565b9150612806836116fd565b9250817fffffffffffffffffffffffffffffffffffffffffffffffffffffffffffffffff048311821515161561283f5761283e61227f565b5b828202905092915050565b7f4e487b7100000000000000000000000000000000000000000000000000000000600052601260045260246000fd5b6000612884826116fd565b915061288f836116fd565b92508261289f5761289e61284a565b5b828204905092915050565b60006128b5826116fd565b91506128c0836116fd565b9250828210156128d3576128d261227f565b5b828203905092915050565b600081905092915050565b60006128f482611d89565b6128fe81856128de565b935061290e818560208601611da5565b80840191505092915050565b600061292682846128e9565b915081905092915050565b6000815461293e81611f91565b61294881866128de565b945060018216600081146129635760018114612974576129a7565b60ff198316865281860193506129a7565b61297d85612552565b60005b8381101561299f57815481890152600182019150602081019050612980565b838801955050505b50505092915050565b60006129bc8284612931565b91508190509291505056fea2646970667358221220dad55ff0b9db3e796bcc4f2ffcd2117aa6db51f484756d09e9203605bd6ac41c64736f6c634300080b0033",
  "immutableReferences": {},
  "source": "// SPDX-License-Identifier: GPL-3.0\r\n\r\npragma solidity ^0.8.0;\r\n\r\ncontract TravelHome{\r\n    address public owner;\r\n    uint256 private counter;\r\n    mapping(address=> uint256) public  balanceOf;\r\n\r\n\r\n    mapping(uint256 => RoomInfo) public Rooms;\r\n    mapping(address => RoomInfo[]) public  RoomsOwned;\r\n    uint256[] public roomIds;\r\n\r\n    event withdraw(\r\n        address from,\r\n        address to,\r\n        uint256 amount\r\n    );\r\n\r\n    event addRooms(\r\n        string name,\r\n        string description,\r\n        string location,\r\n        string[] img,\r\n        string[] latlong,\r\n        uint256[] bedbath,\r\n        uint256 price,\r\n        uint256 maxNumOfPeople,\r\n        string[] placeType,\r\n        string[] features,\r\n        address renter,\r\n        uint256 id\r\n    );\r\n\r\n\r\n    event bookedRoom(\r\n        string name,\r\n        address booker,\r\n        uint256 id,\r\n        string[] datesBooked,\r\n        string[] img\r\n    );\r\n\r\n\r\n    event RemoveRoom(\r\n        address from,\r\n        address by,\r\n        uint256 id\r\n    );\r\n\r\n    struct RoomInfo{\r\n        string name;\r\n        string description;\r\n        string location;\r\n        string[] img;\r\n        string[] latlong;\r\n        uint256[] bedbath;\r\n        uint256 price;\r\n        uint256 maxNumOfPeople;\r\n        string[] datesBooked;\r\n        string[] placeType;\r\n        string[] features;\r\n        bool removed;\r\n        address renter;\r\n        uint256 id;\r\n    }\r\n\r\n\r\n\r\n\r\n\r\n\r\n    constructor(){\r\n        owner = msg.sender;\r\n        counter = 0;\r\n    }\r\n\r\n\r\n\r\n    function addRoom(\r\n        string memory name,\r\n        string memory description,\r\n        string memory location,\r\n        string[] memory img,\r\n        string[] memory latlong,\r\n        uint256[] memory bedbath,\r\n        string[] memory placeType,\r\n        uint256 price,\r\n        uint256 maxNumOfPeople,\r\n        string[] memory features\r\n        ) public {\r\n\r\n            RoomInfo storage newBooking = Rooms[counter];\r\n            newBooking.name = name;\r\n            newBooking.description = description;\r\n            newBooking.location = location;\r\n            newBooking.img = img;\r\n            newBooking.latlong = latlong;\r\n            newBooking.bedbath = bedbath;\r\n            newBooking.price = price;\r\n            newBooking.maxNumOfPeople = maxNumOfPeople;\r\n            newBooking.placeType = placeType;\r\n            newBooking.features = features;\r\n            newBooking.removed = false;\r\n            newBooking.renter = msg.sender;\r\n            newBooking.id = counter;\r\n\r\n            RoomsOwned[msg.sender].push(newBooking);\r\n\r\n            roomIds.push(counter);\r\n\r\n            emit addRooms(\r\n                name,\r\n                description,\r\n                location,\r\n                img,\r\n                latlong,\r\n                bedbath,\r\n                price,\r\n                maxNumOfPeople,\r\n                placeType,\r\n                features,\r\n                msg.sender,\r\n                counter\r\n            );\r\n            counter++;\r\n        }\r\n\r\n        function _checkBooking(uint256 id, string[] memory newDates) private view returns (bool){\r\n            for (uint i=0; i< newDates.length; i++){\r\n                for(uint j=0; j<Rooms[id].datesBooked.length; j++){\r\n                    if(keccak256(abi.encodePacked(Rooms[id].datesBooked[j])) == keccak256(abi.encodePacked(newDates[i]))){\r\n                        return false;\r\n                    }\r\n                }\r\n            }\r\n            return true;\r\n        }\r\n\r\n        function bookRoom(uint256 id, string[] memory newDate) public payable {\r\n            require(id < counter, \"Wrong Room\");\r\n            require(_checkBooking(id, newDate), \"Room is Already Booked Check Another Room\");\r\n            require(Rooms[id].removed == false, \"Room is REMOVED\");\r\n            require(msg.value == _roomPrice(id, newDate), \"Please Pay The Correct Amount\" );\r\n\r\n\r\n\r\n            for (uint i=0; i< newDate.length; i++ ){\r\n                Rooms[id].datesBooked.push(newDate[i]);\r\n            }\r\n\r\n            balanceOf[owner] += _transactionFee(id, newDate);\r\n            balanceOf[Rooms[id].renter] += Rooms[id].price;\r\n\r\n            emit bookedRoom(\r\n             Rooms[id].name ,\r\n             msg.sender ,\r\n             id ,\r\n             newDate ,\r\n             Rooms[id].img\r\n            );\r\n\r\n\r\n        }\r\n\r\n        function _roomPrice(uint256 id,string[] memory newDate) private view returns(uint){\r\n            uint tPrice = _transactionFee(id, newDate) + Rooms[id].price * newDate.length;\r\n            return tPrice;\r\n        } \r\n\r\n        function _transactionFee(uint256 id,string[] memory newDate) private view returns (uint){\r\n            if (msg.sender == owner){\r\n                return 0;\r\n            }\r\n            uint fee = Rooms[id].price * 15 / 100 * newDate.length;\r\n            return fee;\r\n        }\r\n\r\n        function withdrawBalance(uint256 amount) public{\r\n            require(amount<= balanceOf[msg.sender], \"Not Enough Balance\");\r\n            if (msg.sender != owner){\r\n            uint256 fee = amount * 10 /100;\r\n            balanceOf[owner]+= amount * 10 /100;\r\n            amount = amount - fee;\r\n            }\r\n            payable(msg.sender).transfer(amount);\r\n\r\n            emit withdraw(\r\n                address(this),\r\n                msg.sender,\r\n                amount\r\n            );\r\n        }\r\n\r\n        function OwnedRooms() public view returns (uint) {\r\n            return RoomsOwned[msg.sender].length;\r\n        }\r\n\r\n        function removeRoom(uint id) public{\r\n            require(Rooms[id].renter == msg.sender, \"You are NOT the OWNER\");\r\n            Rooms[id].removed = true;\r\n            emit RemoveRoom(address(this), msg.sender, id);\r\n\r\n        }\r\n        \r\n\r\n}",
  "sourcePath": "C:\\Users\\DELL\\Documents\\Web3\\travelhome\\contracts\\TravelHome.sol",
  "compiler": {
    "name": "solc",
    "version": "0.8.11+commit.d7f03943.Emscripten.clang"
  },
  "schemaVersion": "3.4.4",
  "updatedAt": "2022-06-30T14:30:43.890Z",
  "networkType": "ethereum",
  "devdoc": {
    "kind": "dev",
    "methods": {},
    "version": 1
  },
  "userdoc": {
    "kind": "user",
    "methods": {},
    "version": 1
  }
}